{
  "transactions": [
    {
      "hash": "0xca15f5a596a76b847c5e1527dee13566d6c963f97658ecc522826d288b8c7951",
      "transactionType": "CALL",
      "contractName": null,
      "contractAddress": "0x4a9e9bdb4c4909a20101ec429667ed4771755686",
      "function": "mintNft(string)",
      "arguments": [
        "ipfs://bafybeig37ioir76s7mg5oobetncojcm3c3hxasyd4rvid4jqhy4gkaheg4/?filename=0-PUG.json"
      ],
      "transaction": {
        "from": "0x3c651d3e861b6c222e42e73707ae79706c946779",
        "to": "0x4a9e9bdb4c4909a20101ec429667ed4771755686",
        "gas": "0x3da7f",
        "value": "0x0",
        "input": "0xda86f4a900000000000000000000000000000000000000000000000000000000000000200000000000000000000000000000000000000000000000000000000000000057697066733a2f2f62616679626569673337696f6972373673376d67356f6f6265746e636f6a636d3363336878617379643472766964346a71687934676b61686567342f3f66696c656e616d653d302d5055472e6a736f6e000000000000000000",
        "nonce": "0xb",
        "chainId": "0xaa36a7"
      },
      "additionalContracts": [],
      "isFixedGasLimit": false
    }
  ],
  "receipts": [
    {
      "status": "0x1",
      "cumulativeGasUsed": "0xd2a22e",
      "logs": [
        {
          "address": "0x4a9e9bdb4c4909a20101ec429667ed4771755686",
          "topics": [
            "0xddf252ad1be2c89b69c2b068fc378daa952ba7f163c4a11628f55a4df523b3ef",
            "0x0000000000000000000000000000000000000000000000000000000000000000",
            "0x0000000000000000000000003c651d3e861b6c222e42e73707ae79706c946779",
            "0x0000000000000000000000000000000000000000000000000000000000000000"
          ],
          "data": "0x",
          "blockHash": "0x83aabbe754db64370a9c81a2d15facee17fe5579091545e044edd63dfc77cea5",
          "blockNumber": "0x79cce6",
          "blockTimestamp": "0x67e3639c",
          "transactionHash": "0xca15f5a596a76b847c5e1527dee13566d6c963f97658ecc522826d288b8c7951",
          "transactionIndex": "0x5a",
          "logIndex": "0xbd",
          "removed": false
        }
      ],
      "logsBloom": "0x00000000000000000000000000000000000000000000000000000000000000000000000000100000000000000000010000000000000000000000000000000000000000000000000000400008000000000000000000000000000000000000000000000000020000000000000000000800000000080000000000000010000000000000000000000000000000000000000000000000008000000000000000000000000000000000000000000000000000000000000000000000000000000000000000000002000000000000000000000000000000000000000000000000000020000000000000000000000000000000000000400000000000000000000000000000",
      "type": "0x2",
      "transactionHash": "0xca15f5a596a76b847c5e1527dee13566d6c963f97658ecc522826d288b8c7951",
      "transactionIndex": "0x5a",
      "blockHash": "0x83aabbe754db64370a9c81a2d15facee17fe5579091545e044edd63dfc77cea5",
      "blockNumber": "0x79cce6",
      "gasUsed": "0x2ca35",
      "effectiveGasPrice": "0x453eab",
      "from": "0x3c651d3e861b6c222e42e73707ae79706c946779",
      "to": "0x4a9e9bdb4c4909a20101ec429667ed4771755686",
      "contractAddress": null
    }
  ],
  "libraries": [],
  "pending": [],
  "returns": {},
  "timestamp": 1742955423,
  "chain": 11155111,
  "commit": "6b6a5ad"
}